:100000000A128A11EE2D00308A000408840A820741
:1000100000344C34593443344134203453344F3455
:06002000463454340034A4
:100BDC0083010A128A11CB2E02300A128A112626A0
:100BEC000A128A1128300A128A1126260A128A1130
:100BFC000C300A128A1126260A128A110800F400F7
:100C0C00182E740884000A128A1103200A128A1101
:100C1C000A128A1155260A128A110130F300730840
:100C2C00F407182E740884000A128A1103200A1281
:100C3C008A110038031D232E242E072E252E080082
:100C4C00F2007208F039831203138800081188151A
:100C5C002130F1007630F000F00B322EF10B322EF9
:100C6C0064008312031388117208F0000330031020
:100C7C00F00DFF3E031D3D2E0310700DF039880062
:100C8C00081188152130F1007630F000F00B4C2E55
:100C9C00F10B4C2E64008312031388110800F20030
:100CAC007208F03983120313880008158815213057
:100CBC00F1007630F000F00B612EF10B612E640028
:100CCC008312031388117208F00003300310F00D27
:100CDC00FF3E031D6C2E0310700DF03988000815B3
:100CEC0088152130F1007630F000F00B7B2EF10BE3
:100CFC007B2E640083120313881108007A08831278
:100D0C000313A501A5077908A401A4070A30F00074
:100D1C000030F1002508F301F3072408F201F20773
:100D2C000A128A118C270A128A1171088312031372
:100D3C00A101A1077008A001A0072008303E0A12EB
:100D4C008A1155260A128A110A30F0000030F1007F
:100D5C00831203132508F301F3072408F201F207A9
:100D6C000A128A1126270A128A1171088312031398
:100D7C00A301A3077008A201A2072208303E0A12A1
:100D8C008A1155260A128A110800023083160313A1
:100D9C0088008312031388018316031387018312BF
:100DAC00031387010A128A11F2250A128A11803064
:100DBC000A128A1126260A128A1101300A128A1185
:100DCC0005260A128A111A2F1A2FC0300A128A11FC
:100DDC0026260A128A117C08FA01FA077B08F90107
:100DEC00F9070A128A1184260A128A110130FB07AC
:100DFC000318FC0A0030FC077C08803AFF008030A6
:100E0C007F02031D0B2F64307B02031C0E2F0F2F50
:100E1C00132FFB01FC01132F132F831203138818BC
:100E2C00182F192F132F1A2F8312031388181F2F03
:100E3C00202FEB2E1A2F1A2F1A2F0A128A11002884
:100E4C00F601F31F2A2F2B2F342FF209F309F20A84
:100E5C000319F30AF6010314F60D342FF11F372F83
:100E6C00382F3E2FF009F109F00A0319F10A3E2F31
:100E7C00710870040319432F442F7A2FF5010314C2
:100E8C00F50D542F01300310F00DF10DFF3E031D35
:100E9C00492F0130F4007408F507542FF11F572F18
:100EAC00582F482F5A2F5A2F71087302031D602F89
:100EBC0070087202031C632F642F6B2F7008F202F0
:100ECC007108031CF303F3026B2F01300310F10CB8
:100EDC00F00CFF3E031D6C2F0130F502031D772F24
:100EEC00782F5A2F7A2F7A2F7608031D7E2F842F76
:100EFC00F209F309F20A0319F30A842F7308F101BA
:100F0C00F1077208F001F0078B2F0800F601F11FB2
:100F1C00902F912F9A2FF009F109F00A0319F10A79
:100F2C00F6010314F60D9A2FF31F9D2F9E2FA82F59
:100F3C00F209F309F20A0319F30A0130F4007408F8
:100F4C00F606A82FF701F801710870040319AF2FEA
:100F5C00B02FEE2FF5010314F50DC02F0130031047
:100F6C00F00DF10DFF3E031DB52F0130F400740898
:100F7C00F507C02FF11FC32FC42FB42FC62FC62FB8
:100F8C0001300310F70DF80DFF3E031DC72F71083C
:100F9C007302031DD32F70087202031CD62FD72F98
:100FAC00DF2F7008F2027108031CF303F3027714AD
:100FBC00DF2F01300310F10CF00CFF3E031DE02F6E
:100FCC000130F502031DEB2FEC2FC62FEE2FEE2F69
:100FDC007608031DF22FF82FF709F809F70A031901
:100FEC00F80AF82F7808F101F1077708F001F007FB
:040FFC00FF2F0800BB
:02400E003A3F37
:00000001FF
